:0400000082317B2AA4
:1000080080312100111CA7292000111CA7291110DB
:10001800E0309700C03096002200470B4C282300A0
:10002800B80A0319B90A0330390221300319380212
:10003800031C4328B801B9012100360B2C282200E3
:100048001A30B40A3402031C2C28B4012100B6016A
:100058002200400B43282100B408031D4328240034
:10006800D60A0319D70A003057021430031956026A
:10007800031C4328D601D70100000000000022001D
:100088002830C60A4602031C4C28C601B201B20A2F
:100098003F0B8428033023003502E830031934026B
:1000A80003185A28B40A0319B50A84280030B40181
:1000B800B50137023C300319360203186728B60A1F
:1000C8000319B70A84280030B601B70122002702B5
:1000D8003C300319260203187528A60A0319A70A33
:1000E80084280030A601A7017D02183003197C027C
:1000F80003188228FC0A0319FD0A8428FC01FD0163
:100108002200380B97282300A60A0319A70A0330F0
:100118002702E83003192602031C9728A601A70125
:100128002200AB01AB0A22003A0BAA282300A80A36
:100138000319A90A03302902E83003192802031C0D
:10014800AA28A801A9012200AD01AD0A22003B0B93
:10015800BD282300AA0A0319AB0A00302B02053078
:1001680003192A02031CBD28AA01AB012200AE0113
:10017800AE0A22003C0BD0282300AC0A0319AD0AB2
:1001880000302D02053003192C02031CD028AC01C5
:10019800AD012200AF01AF0A22003E0BE328230085
:1001A800B00A0319B10A00303102053003193002D0
:1001B800031CE328B001B1012200B101B10A2200F9
:1001C8003D0BF6282300AE0A0319AF0A00302F02B0
:1001D800053003192E02031CF628AE01AF012200D8
:1001E800B001B00A2200390B09292400BC0A0319FE
:1001F800BD0A00303D02023003193C02031C0929E4
:10020800BC01BD012200AC01AC0A21003C08031965
:100218008429BC0B84293B08053A031D20292800A2
:100228002108A13A031D20292408AA3A031D2029E0
:100238002200C501C50A312921003B08053A031DE2
:10024800352928002108A23A031D35292408AA3A8D
:10025800031D352902302200C500CC01CC0A21003B
:10026800842921003B08153A031D45292800210847
:10027800A33A031D45293408AA3A031D452903302A
:100288002F2921003B08053A031D5529280021087C
:10029800A43A031D55292408AA3A031D55290430F8
:1002A8002F2921003B08053A031D6529280021084C
:1002B800A53A031D65292408AA3A031D65290530B6
:1002C8002F2921003B08053A031D7529280021081C
:1002D800A63A031D75292408AA3A031D7529063074
:1002E8002F2923001D197A299D1C82291D129D136F
:1002F80000000000000023001D169D172100BB010F
:1003080022004E0803198C29CE0B8C2921001116C6
:1003180022004F0B942923009E1C94292200CF0110
:10032800220036080319A729B60BA7294408203A42
:10033800031DA229B501B50AC401A729C401B70143
:10034800200095010B112100111EC4292000111E47
:10035800C42922004D080319BB29CD035008860083
:100368008701010823009A002200D00AC429CD0879
:10037800031DC329CF01CF0A21001112C42900008F
:100388002000911EE9292100911EE929230019085E
:100398002000A0000A302100BC0015303B020318E1
:1003A800E9292200CC08031DE92921003B08203E49
:1003B80086000430870020002008810028002008DB
:1003C800553A031DE9292100BB0A2100921E062A7D
:1003D8002000921E062A921222000330B301B30AAB
:1003E8002100B50022008E1102302100A400A501D1
:1003F8002508F1002408F0008F31D9278031883191
:10040800842080318B190B1C09002700161A16123C
:10041800961F0900961396302200B6002030440239
:1004280003180900B508031D0900B708031D2A2A87
:10043800B701B70A262A2200C4012400EC01ED0105
:10044800EE01EF01200095010B110900370B09009F
:1004580020001508A100A2010B191F2A0030220252
:100468001530031921020030031C492A22023230B8
:10047800031921020318482A2200C40A2400EC3573
:10048800ED0DEE0DEF0D262A003022023330031950
:100498002102031C0900003022025A3003192102EC
:1004A8000318090022000130C40AF400F501F6011E
:1004B800F70124006C08F8006D08F9006E08FA00CE
:1004C8006F08FB00F835F90DFA0DFB0D7808F407F5
:1004D8007908F53D7A08F63D7B08F73D7708EF0087
:1004E8007608EE007508ED007408EC00262A8931BC
:1004F800962928002108A23A031D962E2130F527B7
:1005080089312C2182312408E700C1278231031D5B
:10051800962E55302700A000B230A100EA2682317D
:10052800BB26A631E5268231C4269E319826823123
:100538005A082700A20072279E31982682315A084D
:100548002700A300A426A631E5268231C4269E31C1
:10055800982682315A082700A40061279E319826E0
:1005680082315A082700A5002E279E31982682310D
:100578005A082700A60050279E31982682315A082B
:100588002700A7003F279E31982682315A08270066
:10059800A8000C279E31982682315A082700A90006
:1005A8001D279E31982682315A082700AA0021006B
:1005B8006A082700AB0021003E082700AC00210094
:1005C80066082700AD00210068082700AE00220059
:1005D80069082700AF0022006B082700B00022003E
:1005E8006D082700B100EF271130A50089312C21B3
:1005F800823102278231B200210028082700B30087
:10060800AA30B400962E28002108A33A031D962E7E
:1006180021302000A3000430A4001130A500893146
:100628002C2182312408E7002308E6006708280007
:100638003206031D232B2000660828003306031DFD
:10064800962E22082000AE00280023082000AD00C6
:10065800A7315127823130082100E10020002F08FE
:100668002100E00020002E082100DF0020002D08D6
:100678002100DE00280024082000AE0028002508FC
:100688002000AD00A7315127823130082100E50054
:1006980020002F082100E40020002E082100E3009C
:1006A80020002D082100E20028002608A531022597
:1006B800823130082200D80020002F082200D700FD
:1006C80020002E082200D60020002D082200D50088
:1006D80028002708A5310225823130082200DC00D5
:1006E80020002F082200DB0020002E082200DA005C
:1006F80020002D082200D90028002808A53102254D
:10070800823130082200E00020002F082200DF009C
:1007180020002E082200DE0020002D082200DD0027
:1007280028002908A5310225823130082200E4007A
:1007380020002F082200E30020002E082200E200FB
:1007480020002D082200E10028002A08A5310225F2
:10075800823130082200E80020002F082200E7003C
:1007680020002E082200E60020002D082200E500C7
:100778002100B201EC01EC0A28002B082100EA0054
:1007880028002C082100BE00BF0128002D082100E8
:10079800E600E70128002E082100E800E90128000A
:1007A8002F082200E900EA01280030082200EB00A7
:1007B800EC01280031082200ED00EE01210061085B
:1007C8002000DD00210060082000DC0021005F0817
:1007D8002000DB0021005E082000DA004230E10042
:1007E800C830E000DF01DE019E3158268231031C4B
:1007F800FE2D4430DD009630DC00DB01DA012100FB
:1008080061082000E100210060082000E0002100CC
:100818005F082000DF0021005E082000DE009E3116
:1008280058268231031CFE2D4330DD00FA30DC00EF
:10083800DB01DA01210065082000E10021006408DD
:100848002000E000210063082000DF00210062088A
:100858002000DE009E3158268231031CFE2D4230D6
:10086800AD2758082000E100220057082000E000CA
:10087800220056082000DF00220055082000DE0074
:100888009E3158268231031CFE2D4230AD275C086C
:100898002000E10022005B082000E00022005A0846
:1008A8002000DF00220059082000DE009E31582673
:1008B8008231031CFE2D4230AD2760082000E10084
:1008C80022005F082000E00022005E082000DF0010
:1008D80022005D082000DE009E3158268231031C6C
:1008E800FE2D4230AD2764082000E1002200630895
:1008F8002000E000220062082000DF0022006108DA
:100908002000DE009E3158268231031CFE2D423025
:10091800AD2768082000E100220067082000E000F9
:10092800220066082000DF00220065082000DE00A3
:100938009E3158268231031CFE2D21006A080319B6
:10094800FE2D03306A020318FE2D00303F023D30B1
:1009580003193E020318FE2D0030670219300319EF
:1009680066020318FE2D0030690219300319680267
:100978000318FE2D003022006A021930031969029B
:100988000318D42C00306C02193003196B020318B9
:10099800D42C00306E02193003196D02031CD62CBA
:1009A8002100FE2DEA268231BB26A631E5268231BA
:1009B800C4269E31982682315A08E4000030A731B7
:1009C8007527823172279E31982682315A08E400B1
:1009D8000130A73175278231A426A631E526823158
:1009E800C4269E31982682315A08E4000230A73185
:1009F8007527823161279E31982682315A08E40092
:100A08000330A731752782312E279E3198268231EF
:100A18005A08E4000430A7317527823150279E31E7
:100A2800982682315A08E4000530A73175278231AB
:100A38003F279E31982682315A08E4000630A731B4
:100A4800752782310C279E31982682315A08E40096
:100A58000730A731752782311D279E3198268231AC
:100A68005A08E4000830A7317527823121006A0846
:100A78002000E4000A30A7317527823121003E08A2
:100A88002000E4000B30A731752782312100660869
:100A98002000E4000C30A731752782312100680856
:100AA8002000E4000D30A731752782312200690843
:100AB8002000E4000E30A7317527823122006B0830
:100AC8002000E4000F30A7317527823122006D081D
:100AD8002000E4001030A731752782314230200011
:100AE800CA007430C9004130C801C701B7002030BE
:100AF800B600B501B401210061082000BB00210047
:100B080060082000BA0021005F082000B900210019
:100B18005E082000B8008E3107268231B431602487
:100B28008231A631E52682314A082500E7002000F7
:100B380049082500E600200048082500E5002000B7
:100B480047082500E4004330E3002330E200EF309B
:100B5800E1003730E00043302000B33177238231A1
:100B6800A631E5268231CD268E3107268231B33172
:100B78009C23823121003F083E04031DCB2D230016
:100B88000130A301A201A100F430A000E22D3F082A
:100B98002000A40021003E082000A3003830A50052
:100BA8000430A6008831BC20823123082300A0002D
:100BB800200024082300A100A201A301D527A73102
:100BC800752782312200C301DF268231DE27B33048
:100BD800A100A130A201A20A2000A3000330A400B2
:100BE8000230A50089312C21823102278231E72782
:100BF8008231962E55302700A000B330A100023074
:100C0800A200EF270230A50089312C21823102276A
:100C18008231E72782310100962E21005530BD012F
:100C2800BD0A2700A000B430EC2D02302100BD0021
:100C380055302700A000B530EC2D2100BD01220061
:100C48000E14C0012400D601D7012300D527A731EF
:100C5800752782312100B401B40A34082000E40069
:100C68003830A73175278231A7316F2782312000AC
:100C7800A301A4018B31BA2382318B31B523823190
:100C88008F319B2782318B316723823122008E1569
:100C9800A73192278231C8302000A300A4018B31EC
:100CA80067238231E8302000A3000330A4008B3191
:100CB80092238231A301A4018B31672382318B31C6
:100CC800B52382318F319B2782318B316723823163
:100CD8002200B801B80ABA01BA0ABB01BB0ABC01B2
:100CE800BC0ABD01BD0ABE01BE0AB901B90AC301E9
:100CF800DF268231DE278231B630EC2D4508013AF5
:100D08000319FC2F033A03197D2A013A0319072B0B
:100D1800073A0319112E013A0319192E033A031938
:100D2800212E962E22002030C5012000A300043079
:100D3800A4005030A501A601A700A801A731E92FFA
:100D4800210065082000CE00210064082000CD00A5
:100D5800210063082000CC00210062082000CB009D
:100D68004330CA008030C900C801C701080020000C
:100D7800CB004330CA008030C900C801C701080051
:100D88004A08DD004908DC004808DB004708DA00AB
:100D980008004A08BB004908BA004808B9004708D3
:100DA800B80008003308CE003208CD003108CC0066
:100DB8003008CB0008002500A401A501A601A70161
:100DC8002400B401B501B601B7010800210061088B
:100DD8002000CE00210060082000CD0021005F081F
:100DE8002000CC0021005E08080021003108200006
:100DF800B100210030082000B000080024082100BC
:100E0800A900200023082100A800290827000800BD
:100E1800220064082000DD00220063082000DC00B6
:100E2800220062082000DB00220061082000DA00AE
:100E38000800220068082000DD0022006708200062
:100E4800DC00220066082000DB0022006508200084
:100E5800DA000800220058082000DD0022005708A8
:100E68002000DC00220056082000DB002200550884
:100E78002000DA000800220060082000DD002200BF
:100E88005F082000DC0022005E082000DB00220052
:100E98005D082000DA00080022005C082000DD0060
:100EA80022005B082000DC0022005A082000DB003A
:100EB800220059082000DA000800210065082000F7
:100EC800DD00210064082000DC0021006308200008
:100ED800DB00210062082000DA0008002100610818
:100EE8002000DD00210060082000DC0021005F08F0
:100EF8002000DB0021005E082000DA0008006C08F2
:100F0800033E07390907090708006C08023E07393C
:100F18000907090708006C08013E0739090709078E
:100F280008006C08043E07390907090708006C081F
:100F3800053E07390907090708006C08073E073905
:100F48000907090708006C08063E07390907090759
:100F58000800DD00C830DC00DB01DA0122000800EF
:100F68002000B7007430B6004130B501B401CA00A2
:100F78002030C900C801C70108002308E600670837
:100F880028002206031D0800200066082800230602
:100F9800080025082000B100220024082000B00025
:100FA8000800C1012100B501B301B70137082000CD
:100FB800E400393425005530A801A901AA01AB0184
:100FC8002700A0000800A300210028082700A4008B
:100FD800AA30A5000800A1302000A3000330A40017
:100FE80008002000A3000430A400A501A50A0800F9
:040FF800A9311629DC
:101100000E1128001E15080021008D162800171149
:101110000800FE0012001E000130FE020030FF3BFE
:101120007F087E04031900348A286400013080019E
:101130000131FE020030FF3B7F087E0403190034BA
:101140009628663466344234413466346634423418
:10115000413400340034F034403400340034163468
:101160004434003400342234433401340034033432
:101170000034013401340134A701A801231CC42820
:101180002508A7072608A83DA535A60DA436A30C5B
:1011900024082304031DBE282808A4002708A30050
:1011A000080000340034103441345C348F341A3475
:1011B0004134B8341E34253441341434AE342F3421
:1011C000413471343D343A344134BF344034ED3429
:1011D0001034CD34CC344434413400340034C83479
:1011E000423400340034C834423400340034C8344B
:1011F000423400340034C834423400340034C8343B
:1012000042340434003403340034013400340134F3
:10121000003400348034423400340034A03440348C
:101220000034003410344134003400341834413474
:10123000003400349034403400340034803440347E
:10124000003400340034413400340034C0344034BD
:10125000003400347C344234FF30AA00AB00A503D4
:101260002508FF3A0319512923088600240887001E
:1012700001082A06A600A701A801A901A30A0319CB
:10128000A40A013E8400B830273D850000082B06E3
:10129000AA00013026078400B930273D85000008E8
:1012A0002E292A08A400A3012B08A3040800AB01DF
:1012B000AC01AD01AE012608250424042304031962
:1012C0008D29AF01AF0AA61B6A29A335A40DA50D70
:1012D000A60D6229AB35AC0DAD0DAE0D26082A0268
:1012E000031D7C2925082902031D7C2924082802C6
:1012F000031D7C2923082702031C87292308A70232
:101300002408A83B2508A93B2608AA3B2B14A6368F
:10131000A50CA40CA30CAF0B6A292E08A6002D085F
:10132000A5002C08A4002B08A3000800703084003E
:10133000233085008030FE00FF01883195208931FF
:10134000A030FC01FD01EA01EB01EC01840000305A
:1013500085002030FE000030FF0088319520893163
:1013600020308400013085003130FE000030FF0065
:10137000883195208931A0308400013085004330C8
:10138000FE000030FF008831952089312030840034
:10139000023085003830FE000030FF008831952093
:1013A0008931A0308400023085002830FE000030F2
:1013B000FF0088319520893120308400033085007A
:1013C0001C30FE000030FF00883195208931A030AC
:1013D0008400033085005030FE000030FF0088316B
:1013E0009520893120308400043085005030FE0083
:1013F0000030FF00883195208931AD30840088307D
:101400008500DE308600003087000030FF000F309E
:10141000883189208931E930840088308500513055
:101420008600013087000030FF001F30883189209E
:101430008931A130840088308500E3308600013096
:1014400087000030FF000C30883189208931D1308D
:1014500084008830850058308600023087000030D4
:10146000FF001830883189208931083084008930A4
:101470008500C8308600023087000030FF0024302D
:101480008831892089312000452A2A248931AF24D6
:101490008931E523893164002200320B592A20006A
:1014A0008E1C572A2200B4012100B601B60A220080
:1014B000B201350B792A24006F082000E9002400CE
:1014C0006E082000E80024006D082000E7002400DA
:1014D0006C082000E600A4222200C401B701240009
:1014E000EC01ED01EE01EF01200095010B1122004E
:1014F000B501AC316B248931A53116258931230022
:101500001D19842A9D1C8C2A1D129D1300000000A9
:10151000000023001D169D1722004C0B4B2AA931F9
:101520001421893123001D19972A9D1C9F2A1D1201
:101530009D1300000000000023001D169D172100D0
:10154000BB012200CC014B2A67082100C200552BA9
:1015500000000800340B0800B80138082000E4003F
:101560003630A731752789312100B701BB27A73154
:10157000752789312100BD01B527A7316F27893132
:101580002000A301A401BA238931B52389319B2707
:101590008931672322008E15A731922789311930AE
:1015A0002000A300A40167238931E8302000A300B4
:1015B0000330A40092238931A301A4016723893158
:1015C000B52389319B27893167232200C3018631E6
:1015D000DF262500A801A901AA01AB010800340BF0
:1015E0000800B801B80AAD2A340B08000230B80070
:1015F000AD2A340B022B0130B70AB705BB27A73140
:10160000752789312100B708031D092B340B092BDD
:10161000BB2A370B0800340B0800BD01B527A731E2
:101620006F2789312000A301A401BA238931B52392
:1016300089312000A301A40167238931C83020002B
:10164000A300A401922322008E15A731922789318D
:1016500023302000A300A40167238931A727893103
:1016600092238931A301A40167238931A7278931F6
:10167000922389312330A300A40167238931A7274E
:10168000893192238931A301A40167238931A727D6
:101690008931922389312330A300A4016723893142
:1016A000F4302000A3000130D92A4208003A03197F
:1016B000A82A103A0319EF2A503A0319AA2A103A15
:1016C0000319F42AD83A0319F92A662B08002408CA
:1016D0002100A500200023082100A40003302000E1
:1016E000240285300319230203188F2B2408A60037
:1016F0002308A500A636A50CA636A50C25082600AD
:101700009100200023080339A500A50E2600130828
:1017100020002506CF392506260093000800E13079
:101720002600FC2FA501A60124082602031D9A2BE2
:101730002308250203180800A701A80100000000E3
:101740000000000000000000000000002000A70AC8
:101750000319A80A03302802E83003192702031CE2
:101760009E2BA50A0319A60A942B21008D1628008A
:101770001711080024082100A700200023082100D9
:10178000A600033020002402853003192302031829
:10179000E22B2408A6002308A500A636A50CA63631
:1017A000A50C250825009100200023080339A50079
:1017B000A50E2500130820002506CF392506250093
:1017C00093000800E1302500FC2F200018142200AF
:1017D0002030C701C70AB801B80ABA01BA0ABB016A
:1017E000BB0ABC01BC0ABD01BD0ABE01BE0AB901EB
:1017F000B90AD027A631DB268931CB27A631DB26D3
:101800008931C730AB000130AC00A631DB2689310D
:1018100017278931C62489316B2789315727B3317E
:1018200077238931A631E52689318631CD26893164
:101830000726B3319C232200BF012300B401B50168
:10184000B601B7012200A601A701FC01FD0123009A
:10185000C3010800752489317D2489316F248931C1
:10186000912489319E2489313B2489315024893146
:10187000C0268931B22C8D172700951796132100A9
:101880000D162700151616120B108B152100951238
:101890009511073095040B11200095018B1208005B
:1018A0002100C5278D158D140D149E171E088F3924
:1018B00060389E001E1103309E0422001708FC3978
:1018C0000138970097179716171621001D088339BE
:1018D00074389D001D101113200011130800210001
:1018E0000D160E178E160E16080070302100990086
:1018F0001708C1391C389700080023008C018D019E
:10190000C5278D148D150D1421008E148E11220003
:101910008E1121000E150D158D160E1022000E14BD
:101920000800E03020009700C0309600603098003A
:1019300099132100111420001810080040302300D2
:101940009B0003309C0008309F0021000E178E176B
:1019500023009E0190309D002100911608008D25E6
:10196000A131D729220011129112111591141110D1
:101970001217CF309205FC309205210092162000FC
:101980009212220091170B178B1708004708CF00FF
:101990004808D0004908D1004A08D2000310510D70
:1019A000520DD5004B08CF004C08D0004D08D10097
:1019B0004E08D2000310510D520DD40055080319E2
:1019C000ED2C5408550254080318F72CCF00550885
:1019D000CF0221304F02031CF62C4E08CA004D08DE
:1019E000C9004C08C8004B08C70008005408031978
:1019F0000800550854020318052D5508CF00540857
:101A0000CF0221304F02031808000630D300CA1B52
:101A1000D317CE1B5317C917CA01CD17CE015408CF
:101A2000550203182C2DCB35CC0DCD0DCE0DD40386
:101A3000540855060319272DD303530807390319F2
:101A4000272D132DCA36C90CC80CC70CD50A55084A
:101A500054060319482D222D550854020318482D09
:101A6000C735C80DC90DCA0DD5035408550603194D
:101A7000442DD303530807390319442D302DCE3696
:101A8000CD0CCC0CCB0CD40A55085406031D3F2DAD
:101A9000D31F562DFF30C706C806C906CA06C70A97
:101AA0000319C80A0319C90A0319CA0A531F612D69
:101AB000FF30BF2789310319CC0A0319CD0A031956
:101AC000CE0AD3014708CB074808CC3D4908CD3D95
:101AD0004A08CE3DCE1F772DFF30BF27893103192D
:101AE000CC0A0319CD0A0319CE0AD301D30A4E0832
:101AF000A6004D08A5004C08A4004B08A3005508FB
:101B0000A7005308A80075262608CA002508C900A2
:101B10002408C8002308C700080064302000A30080
:101B2000A40192230A30A431EB2489312100EA0078
:101B30000C30B531A52589313108EB003008EA00B9
:101B40004130B700F830B6005130B500EC30B40089
:101B50004430CA007A30C900C801C7016B08B1001F
:101B60006A08B0009B31462389318631D6268931F7
:101B7000A631E52689318631CD268931072689317E
:101B80003708E9003608E8003508E7003408E600C1
:101B900021006A0BDF2D20008B279E3158268931CA
:101BA000031CDD2D41307B279E3158268931031CD3
:101BB000DD2D2100A127A731752F000008006A083C
:101BC000023A031DF52D20008B279E3158268931BE
:101BD000031CDD2D41307B279E3158268931031CA3
:101BE000DD2D2100A127A731752F20008B279E31E5
:101BF00058268931031CDD2D41307B279E31582624
:101C00008931031CDD2D2100A127A731752F340850
:101C1000BC003508BD003608BE003708BF00031001
:101C20003E0D3F0DC000C008031D182EB401D52F76
:101C30003808BC003908BD003A08BE003B08BF00A8
:101C400003103E0D3F0DC600C608031D292EB4012A
:101C5000D52F46087B3EC0073708C6003B08C6069E
:101C60008030C605FF30B617BA17B805B905BA05F2
:101C70000730BB01C101C201C301C401C500341C4E
:101C8000442E3808AD278931B736B60CB50CB40CE4
:101C9000B835B90DBA0DBB0DC50B3F2E1130C500BF
:101CA000341C552E3808AD278931B736B60CB50C23
:101CB000B40CC436C30CC20CC10CC50B502E440866
:101CC000A6004308A5004208A4004108A30040085C
:101CD000A7004608A80075262608B7002508B60004
:101CE0002408B5002308B4000800270803197E2E35
:101CF0002608250424042304031D882EA301A4011F
:101D0000A501A6010800A70AA636A50CA40CA30CE1
:101D1000FE3026050319992E832EA70AA30A03195C
:101D2000A40A0319A50A0319A60AA636A50CA40C31
:101D3000A30CFF3026050319A32E8D2EA703A33570
:101D4000A40DA50DA60DA51F9E2E2718AE2EFF30A3
:101D5000A305A4057F30A505FF30A605A7362708F3
:101D6000AC00AB01AA01A9012908A3042A08A40414
:101D70002B08A5042C08A6042808031DA617080094
:101D800021000E150D158D1622001D17FF3028009D
:101D90009D0025001308F0390C38930013083F39D3
:101DA000803893001E08FC3902389E009101CF3024
:101DB000930520009311873028009E051E11FC30EA
:101DC0009E05FF30960026001308F0390C3893006A
:101DD0003F30930525001E08CF3910389E0026009D
:101DE0009101CF309305200093108730280097058C
:101DF0001711FC30970521000C12CE3020009B00FB
:101E000026001E08F0390C389E003F309E05FC303D
:101E100025009F05453026009C00CF309E05200000
:101E2000911087309C051C11FC309C0508003A304D
:101E30002600A7008330A6001230A5006F30A40052
:101E40004230A801A901AA01AB01AC01AD01AE016C
:101E5000AF01A3009630A2003A30A101A0012500F5
:101E6000B3008330B2001230B1006F30B0003F30A9
:101E7000B401B501B601B701B801B901BA01BB019E
:101E80002000CA008030C900C801C70123006608CD
:101E90002000CE00230065082000CD002300640848
:101EA0002000CC00230063082000CB0008003A305B
:101EB0002300CE008330CD001230CC006F30CB0039
:101EC0004330CF01D001D101D201D301D401D501DA
:101ED000D601200008004A082500AF00200049086C
:101EE0002500AE00200048082500AD00200047086E
:101EF0002500AC000800DD004930DC009930DB0033
:101F00009A30DA006908E1006808E0006708DF003D
:101F10006608DE0008006908DD006808DC00670864
:101F2000DB006608DA004030E100F030E00000300D
:101F3000DF01DE01080022008E112000A301A401B0
:101F40000800EB01EB0A6B082000E4000934F430D0
:101F50002000A3000130A4000800C1073908C23DD9
:101F60003A08C33D3B08C43D08002300C1012100DD
:101F7000B501B301080037082000E4003934CB066E
:101F8000CC06CD06CE06CB0A08000C148C140C151A
:101F90008C158C160800AC30AB000230AC00080089
:101FA0002000AB000330AC000800B501B601B7015A
:101FB00008007108A5007008A40003307102853084
:101FC000031970020318F92F7108F3007008F2006A
:101FD000F336F20CF336F20C72082600910070080A
:101FE0000339F200F20E13087206CF39720693001D
:101FF0000800E1302600FC2F9100CF309305080047
:102220002200AF01300B242A2100AC01AD013A0895
:10223000023A031D222A0430B531A5259131310817
:102240002100AD00200030082100AC00B431BB24D7
:1022500091319B3146239131B33193239131B43184
:10226000DC2491319E3158269131031866292100D2
:102270003508023A031D66292000B43169249131E2
:10228000B331EF2391319E315826913103186629DD
:102290002300B5317925913103193202031CD62967
:1022A0000230B201B3012100B331BF2391318B3130
:1022B00067239131B531912591318B319223913141
:1022C0008B31B523913122008E1165292100B43163
:1022D000BB2491319B3146239131B331932391310A
:1022E000B431DC2491319E3158269131031CD3291D
:1022F0002100B431BB2491319B3146239131B3315C
:102300009323913123006E082000BB0023006D0849
:102310002000BA0023006C082000B90023006B08DD
:102320002000B8004030B700B601B501B4018E31CD
:1023300007269131B5314B2591319E315826913187
:102340000318D32921003508023A031DD3292000A0
:10235000B43169249131B331EF2391319E31582644
:1023600091310318D3292300B5317925913103190F
:102370003202031CD6290330B201B3012100B5009B
:102380000230B331BF2391318B3167239131B531A5
:10239000912591318B31922391318B31B52391313C
:1023A00022008E11D2292300B201B30125006B084F
:1023B0002000DD0025006A082000DC0025006908F7
:1023C0002000DB00250068082000DA002100B4317D
:1023D000BB2491319B3146239131B331AC239131F0
:1023E0009E315826913103181F2A21003508023AE0
:1023F000031D1F2A2400D00A0319D10A03305102F9
:10240000E93003195002031C222A03302100B500D1
:1024100024000530D001D1012100B331BF23913117
:102420008B3167239131B531912591318B319223D5
:1024300091318B31B523913122008E111E2A240057
:10244000D001D1012200B0012C0B08002100AA010B
:10245000AB013A08023A031DFD2F0A30B531A5251C
:10246000913131082100AB00200030082100AA0082
:1024700025005B082000DD0025005A082000DC0054
:10248000250059082000DB00250058082000DA004C
:1024900021002B082000B10021002A082000B000F4
:1024A0009B3146239131B331AC2391319E31582673
:1024B00091310318842A21003508023A031D842A29
:1024C0002400D40A0319D50A003055021530031927
:1024D0005402031C872A03302100B5000230B331B7
:1024E000BF2391318B3167239131B53191259131E2
:1024F0008B31922391318B31B523913122008E1192
:102500002400D401D501832A2400D401D501B4319B
:102510006E249131B331E82391319B3146239131BF
:10252000B331AC2391319E31582691310318A52A3D
:102530002100350BA52A0230B5002200BF01BF0AD9
:102540008E15A73192279131BB2AB4316E24913177
:10255000B331E82391319B3146239131B331AC2320
:1025600091319E3158269131031CBB2A2100350B35
:10257000BB2A2200BF01B4317D2491319B31462317
:102580009131B33193239131B431ED2491319E31A6
:1025900058269131031CCE2F21003508023A031D25
:1025A000CE2F2500B431302491319B314623913117
:1025B000B331AC2391319E3158269131031CA62FA3
:1025C00021003508023A031DA62F66082200C80024
:1025D0002100660868072200C900B5316C259131D9
:1025E000CA00B5316C2591316B07CB00B5316C2534
:1025F00091316B076D072300C50022004808B331F5
:10260000B523913103180B2B0230320203180B2B28
:10261000B201B20A5D2B22004808B331B5239131D3
:10262000031C1F2B22004908B331B5239131031835
:102630001F2B0330320203181F2B02305A2B2200AB
:102640004908B331B5239131031C332B22004A08CA
:10265000B331B52391310318332B04303202031800
:10266000332B03305A2B22004A08B331B523913162
:10267000031C472B22004B08B331B52391310318BB
:10268000472B053032020318472B04305A2B220007
:102690004B08B331B5239131031C5C2B2300450853
:1026A000B331B523913103185C2B06303202031885
:1026B0005C2B0530B2005D2BB2012400B4318324C1
:1026C0009131B331E82391319B3146239131B331BC
:1026D000AC2391319E315826913103188B2B023057
:1026E00021006C0203188B2B2400C20A0319C30AB1
:1026F0000030B5311E259131CC01CD01430265304A
:1027000003194202031CE32C2100EC01EC0A240013
:10271000C201C301E32C2400B4319F249131B331B1
:10272000E82391319B3146239131B331AC23913170
:102730009E31582691310318CD2B2400B4318324C7
:102740009131B331E82391319B3146239131B3313B
:10275000AC2391319E3158269131031CCD2B03308F
:1027600021006C020318CD2B2400C40A0319C50AEA
:102770000030C201C301C601C701B5313225913114
:102780004502653003194402031CE32C023021008A
:10279000EC002400C401C501E32C2400B4319124D1
:1027A0009131B331E82391319B3146239131B331DB
:1027B000AC2391319E315826913103180F2C2400FF
:1027C000B4319F249131B331E82391319B314623B9
:1027D0009131B331AC2391319E3158269131031C94
:1027E0000F2C043021006C0203180F2C2400C60AA1
:1027F0000319C70A0030C401C501C201C301B531C4
:10280000322591314702653003194602031CE32C3F
:1028100003302100EC002400C601C701E32C240092
:10282000B431AD249131B331E82391319B3146234A
:102830009131B331AC2391319E3158269131031837
:10284000542C2400B43191249131B331E8239131D7
:102850009B3146239131B331AC2391319E315826BF
:102860009131031C542C053021006C020318542CA8
:102870002400C80A0319C90A0030C401C501C601F1
:10288000C701C201C301CA01CB01CC01CD0149027C
:10289000653003194802031CE32C04302100EC00CE
:1028A0002400C801C901E32C24005B082000DD00DE
:1028B00024005A082000DC00240059082000DB0016
:1028C00024005808B331E82391319B3146239131DC
:1028D000B331AC2391319E31582691310318A32C8A
:1028E0002400B431AD249131B331E82391319B31CF
:1028F00046239131B331AC2391319E315826913129
:10290000031CA32C063021006C020318A32C240006
:10291000CA0A0319CB0A0030C401C501C601C701A8
:10292000C801C901C201C301CC01CD014B02653010
:1029300003194A02031CE32C05302100EC0024009B
:10294000CA01CB01E32CB4317D2491319B31462364
:102950009131B3319323913124005B082000E100D1
:1029600024005A082000E000240059082000DF005D
:10297000240058082000DE009E31582691310318AB
:10298000DB2C073021006C020318DB2C2400CC0A5E
:102990000319CD0A0030B5311E259131C201C301A2
:1029A0004D02653003194C02031CE32C0630210054
:1029B000EC002400E12C2400C201C301B5311E2526
:1029C0009131CC01CD013D302000B5312725913129
:1029D0008831BC209131B53142259131B7311D2765
:1029E0009131B531A02591319B3146239131B331DD
:1029F000C92391318E3107269131B4316024913150
:102A0000A631E52691314A08DD004908DC00480876
:102A1000DB004708DA004330B33177239131A63128
:102A2000E52691318631CD2691318E3107269131BF
:102A3000B5314B2591319E31582691310318452DE2
:102A40003D30B531272591318831BC209131B531E8
:102A500042259131B7311D279131B531A0259131F2
:102A60009B3146239131B331C92391318E310726F1
:102A70009131B43160249131A631E5269131B531DF
:102A80000E259131BB01BB0A552D4330B33177235D
:102A90009131A631E52691318631CD2691318E31A5
:102AA00007269131B3319C2391314A082500EF006C
:102AB000230049082500EE00230048082500ED000A
:102AC000230047082500EC002100320B792D42300D
:102AD000B431C324913158082000B70022005708B0
:102AE0002000B600220056082000B500220055083C
:102AF000D02D3208023A031D8F2D4230B431C32449
:102B000091315C082000B70022005B082000B6006D
:102B100022005A082000B50022005908D02D3208A2
:102B2000033A031DA52D4230B431C324913160080E
:102B30002000B70022005F082000B60022005E08D7
:102B40002000B50022005D08D02D3208043A031D94
:102B5000BB2D4230B431C324913164082000B7004A
:102B6000220063082000B600220062082000B500A1
:102B700022006108D02D3208053A031DE32D4230B2
:102B8000B431C324913168082000B70022006708DF
:102B90002000B600220066082000B500220065086B
:102BA0002000B431FE2491312000B8008E31072678
:102BB0009131B43160249131A631E5269131B5319E
:102BC0000E259131EA2DB208031DEA2D2300B531FF
:102BD0009625913121006C0BF52D3F302000B70078
:102BE0008030B600B501B401292E6C08023A031DED
:102BF000022E3F302000B7001930B6009930B500E2
:102C00009A30282E6C08033A031D0B2E3E30B53146
:102C10007F259131282E6C08043A031D142E3E3076
:102C2000B531862591311D2E6C08053A031D202EE5
:102C30003D302000B700CC30B600B500CD30282E96
:102C40006C08063A031D342E3C30B53165259131B0
:102C5000B400B431082491312000B8008E31072629
:102C60009131B3319C2391312100390B3C2E3F30FF
:102C7000B5318B259131472E3908023A031D532E69
:102C80003E30B53186259131B500CD30B400B43138
:102C9000082491312000B8008E3107269131B331DC
:102CA0009C2391315B2E3908033A031D5B2E2300D0
:102CB000B531962591312100B8080319BD080319D3
:102CC000772E380B6A2EBD08031D6A2E360BB92EDF
:102CD0000000C82E3808023A031DC82EBD08031D87
:102CE000C82E320BB02E04306C020318B02E7D08B3
:102CF0007C04031D852E0030220027021E3003199C
:102D000026020318852E2100882E2100360B9A2ECC
:102D10006C08053A031D952E3C302000B700233087
:102D2000B600D730B5000A30BD2E3F30B5318B2507
:102D30009131AC2E6C08053A031DA72E3B302000C4
:102D4000B700E530B6006030B5004230BD2E3E30F1
:102D5000B5317F259131B400B43108249131C02EB2
:102D6000023032020318662E04306C02031CC82E97
:102D7000662E3C30B53165259131B431FE24913158
:102D80002000B8008E3107269131B3319C23913158
:102D90002100370BD22EBD08031DD22E2300B531E2
:102DA000962591312200C730C101C10A2000E600FA
:102DB0000130E70021002B082000E90021002A084B
:102DC0002000E8009B315A23913169082500A300B7
:102DD000200068082500A200200067082500A10047
:102DE000200066082500A00023082000CA00250056
:102DF00022082000C900250021082000C800250065
:102E000020082000C700210023082000CE00210058
:102E100022082000CD00210021082000CC00210044
:102E200020082000CB008C31C62491314A082100B3
:102E3000A300200049082100A2002000480821002A
:102E4000A100200047082100A00023082000DD0089
:102E5000210022082000DC00210021082000DB00E6
:102E6000210020082000DA004430E1006130E00059
:102E7000DF01DE019E3158269131031C442F44307E
:102E80002100A3006130632F4030DD00A030DC0062
:102E9000DB01DA01210023082000E10021002208E3
:102EA0002000E000210021082000DF002100200890
:102EB0002000DE009E3158269131031C662F4030E1
:102EC0002100A300A030A200A101A001210023083D
:102ED0002000DD00210022082000DC002100210864
:102EE0002000DB00210020082000DA009E31982617
:102EF00091315B082100A50020005A082100A400A0
:102F000023004A08490448044704031D8A2F21006E
:102F1000A4019B2F3F309F3166279131DB01DA01FD
:102F2000B331EF2391319E3158269131031C9C2FF0
:102F300019302100A400A5012100B43100249131F1
:102F40008B31672391312300BB01CA2F2500B43197
:102F5000302491319B3146239131B331AC239131EF
:102F60009E31582691310318CA2F21003508023AA4
:102F7000031DCA2F003025020B3003192402031C45
:102F8000C42FFF30A407A53DB431002491318B310B
:102F9000672391312400BE01BF01FD2FB4317D2490
:102FA00091319B3146239131B33193239131B43127
:102FB000ED2491319E31582691310318CA2F2100FA
:102FC0003508023A031DCA2F2400BE0A0319BF0A9E
:102FD00003303F02E93003193E02031CFD2F03308A
:102FE0002100B5000230B331BF2391318B3167230B
:102FF00091312400BE01BF01FC2F2200AC0108006A
:1033A000B4317D2499314623B33193239931552784
:1033B00099315826993103184C2A21003308033AD1
:1033C000031D4C2A2300C008031D132A25082200D0
:1033D0002502031DEF2923002408220024020318DC
:1033E000202A2300C001C00A2100832799314623E7
:1033F0009931AD279931C030F5278C31C6249931E8
:10340000B6279931982699319B27993100302702A8
:1034100033300319260203183D2A3230A600A701D3
:103420002300C0013D2A250822002502031D1C2A75
:1034300023002408220024020318F4292300C001D9
:1034400021008327993146239931AD2799314030A6
:10345000F5278C31C6249931B627993198269931B0
:103460009B27993103302702843003192602031C5D
:103470003D2A8430A6000330A70021007B278B3132
:10348000BA239931210083279931462399316B273B
:103490002400C001C1010800B4317D2499314623C4
:1034A000B33193239931230066082000E100230003
:1034B00065082000E000230064082000DF002300EE
:1034C00063082000DE0058269931031C902A6B08FF
:1034D000B1006A08B0004623B331932399313027F5
:1034E0009931582699310318902A21003308033A5C
:1034F000031D902A2400C00A0319C10A00304102AA
:10350000643003194002031C08000430C001C101EB
:103510002100B30083279931462399316B27080096
:10352000B4317D2499314623B33193239931302727
:103530009931582699310318482A21003308043A52
:10354000031D482A02302200C100AC302000E600F2
:103550000230E7006B08E9006A08E8005A23993155
:1035600069082500A300200068082500A2002000AB
:1035700067082500A100200066082500A000230898
:103580002000CA00250022082000C90025002108CB
:103590002000C800250020082000C70021002308C3
:1035A0002000CE00210022082000CD0021002108AB
:1035B0002000CC00210020082000CB008C31C62444
:1035C00099314A082100A300200049082100A200E7
:1035D000200048082100A100200047082100A00089
:1035E00023082000DD00210022082000DC0021004B
:1035F00021082000DB00210020082000DA004430F0
:10360000E1006130E000DF01DE0158269931031C42
:103610000E2B44302100A30061302C2B4230DD0002
:103620004830DC00DB01DA01210023082000E10042
:10363000210022082000E000210021082000DF00F6
:10364000210020082000DE0058269931031C2F2B72
:1036500042302100A3004830A200A101A0012100B6
:1036600023082000DD00210022082000DC002100CA
:1036700021082000DB00210020082000DA00982625
:1036800099319B2799317B278B31BA2B3008A300C6
:103690003108A4009630A501A601A700A8018E312B
:1036A00075262608B3002508B2002408B1002308B7
:1036B000B000080040302100D300A030D200D1017A
:1036C000D00120006908AE006808AD00A73151277D
:1036D00099313008D9002F08D8002E08D7002D08BE
:1036E000D6006608860067088700CE279931DF2656
:1036F000993159082100D700200058082100D60030
:10370000200057082100D500200056082100D400D1
:1037100023003B0BB42B40302000DD00DC01FC26F5
:10372000993158269931031C9F2B21000F2799317D
:10373000C030F0279931582699310318F62B210013
:103740000F2799314030DD279931582699310318D8
:10375000DA2BC030DD008030DC00FC2699315826A1
:103760009931031C152CDA2B2200410BDF2B3F3043
:1037700066279931FC26993158269931031CCA2BAA
:1037800021000F279931BF30DD2799315826993113
:103790000318F62B21000F279931C8279931582695
:1037A00099310318DA2BC030DD00DC01FC26993199
:1037B0005826993143302100D3004830122C41085B
:1037C000023A031D152C3F3066279931FC269931AA
:1037D00058269931031CFC2B21000F279931BF304B
:1037E000DD27993158269931031CFC2B2100D40187
:1037F000D501D601D701152C21000F279931C827F3
:1038000099315826993103180E2CC030DD00DC01A7
:10381000FC26993158269931031C152C4230210081
:10382000D300C830D200D101D001210057082000B8
:10383000CA00210056082000C900210055082000B8
:10384000C800210054082000C7009427CB00413F46
:10385000CC00423FCD00433FCE008C31C62499318D
:10386000660886006708870058314708C03F480847
:10387000C13F4908C23F4A08C33F94279931DA0043
:10388000413FDB00423FDC00433FDD00C827993168
:1038900058269931031C582C660886006708870053
:1038A00000305831C03FC13FC23F4030C33F732C4E
:1038B000C030DD00DC01DB01DA0194279931DE0044
:1038C000413FDF00423FE000433FE100582699318D
:1038D000FB279931031C752C00305831C03FC13F84
:1038E000C23FC030C33FFB2799315431403FD6001F
:1038F000413FD700423FD800433FD90066088600C9
:10390000670887005031CE279931DF269931590851
:103910002100C700200058082100C60020005708D9
:103920002100C500200056082100C400D727993186
:103930005031403F2100C000413FC100423FC20022
:10394000433FC300D7279931543121004008C03F7D
:103950004108C13F4208C23F4308C33FD7279931BE
:10396000503121005408C03F5508C13F5608C23F9E
:103970005708C33F2000B700210056082000B600BA
:10398000210055082000B50021005408E92799318D
:1039900044318B278E310726993137082100CB001F
:1039A000200036082100CA00200035082100C90087
:1039B000200034082100C800200094279931B40069
:1039C000413FB500423FB600433FB700660886005E
:1039D0006708870048318B278E3107269931A32746
:1039E00053082000B700210052082000B600210033
:1039F00051082000B500210050082000B40021002B
:103A00004B082000BB0021004A082000BA0021001A
:103A100049082000B900210048082000B8008E3174
:103A2000072699313708CE003608CD003508CC007E
:103A30003408CB008C31C62499314A082100CF00CC
:103A4000200049082100CE00200048082100CD00B8
:103A5000200047082100CC0047082000B7002100C3
:103A600046082000B600210045082000B5002100CE
:103A70004408E92799314C318B278E31072699313B
:103A8000A3274F082000CE0021004E082000CD00C3
:103A900021004D082000CC0021004C082000CB0064
:103AA0008C31C62499314A082100DB0020004908E6
:103AB0002100DA00200048082100D9002000470832
:103AC0002100D8000F2799314030E100E000DF01EC
:103AD000DE0158269931031C772D4030DD00A030DF
:103AE000DC00FC2699315826993103188B2DC03003
:103AF000DD004030DC00FC26993158269931031C4A
:103B0000B72D21000F279931C030E327993158266E
:103B10009931031CB72D2100B808031DA12D7D0884
:103B20007C04031DE22D220027082604031DE22D3C
:103B30000030230037021E30031936020318E22D2D
:103B400021005B0846279931C827993158269931B9
:103B5000031CAC2D4030422EC030412799311F2725
:103B6000993158269931031C472EC030422E4030DF
:103B7000DD00A030DC00FC26993158269931031C69
:103B8000CB2D21000F279931C030E32799315826DA
:103B900099310318022E2100B808031DE42D7D0879
:103BA0007C04031DE22D220027082604031DE22DBC
:103BB0000030230037021E30031936020318E22DAD
:103BC0002100E42D2100062E5B0846279931403064
:103BD000E327993158269931031CF02D4030FD2DF3
:103BE000C030DD00A030DC00DB01DA011F27993195
:103BF00058269931031C472EC0302100DB00A0302D
:103C0000DA00452E2100B808031D2C2E5B0846273C
:103C100099313D30E100CC30E000DF00CD30DE00F6
:103C200058269931031C162E3D30242EBD30DD0060
:103C3000CC30DC00DB00CD30DA001F27993158266C
:103C40009931031C472EBD302100DB00CC30DA0057
:103C5000D900CD30D800472E5B08462799313F3038
:103C6000F027993158269931031C382E3F30422EC7
:103C7000BF30412799311F27993158269931031CAC
:103C8000472EBF302100DB00DA01D901D801210025
:103C90005B082000E90021005A082000E80021000C
:103CA00059082000E700210058082000E60008001D
:103CB000DD1F6F2E8030E201E301E401E5005A08C8
:103CC000E2025B08E33B5C08E43B5D08E53B65081A
:103CD000DD006408DC006308DB006208DA00E11F35
:103CE000862E8030E201E301E401E5005E08E20295
:103CF0005F08E33B6008E43B6108E53B6508E100E1
:103D00006408E0006308DF006208DE008030DD0642
:103D1000E10661085D02031D080060085C02031DE6
:103D200008005F085B02031D08005E085A020800D5
:103D3000BF2799310310600D610DE300E308031DF7
:103D4000A62EDA01DB01DC01DD010800BF27993175
:103D50001F30E136E00CDF0CDE0C890BA92E5E086B
:103D6000E2009630DC17DD01E302E31FC32E630897
:103D7000803A973E031CA12EDD36DC0CDB0CDA0CFE
:103D8000E30FBC2ED02E203063020318A12EE308CF
:103D90000319D02EDA35DB0DDC0DDD0DE303C72E64
:103DA000620803190800DA09DB09DC09DD09DA0A0F
:103DB0000319DB0A0319DC0A0319DD0A0800803045
:103DC000D9065908CA005808C9005708C80056083B
:103DD000C7005D08CE005C08CD005B08CC005A0827
:103DE000CB008C31C6244A08D9004908D8004808BD
:103DF000D7004708D6000800DB01DA012100570888
:103E00002000E100210056082000E00021005508B4
:103E10002000DF00210054082000DE0008005708C1
:103E20002000DD00210056082000DC00210055089C
:103E30002000DB00210054082000DA0008002100E7
:103E40005B082000E10021005A082000E00021006A
:103E500059082000DF00210058082000DE0008007B
:103E6000220054082000E100220053082000E00056
:103E7000220052082000DF00220051082000DE004E
:103E80000800DD00DC01DB01DA0108002000DD00B4
:103E900021005A082000DC00210059082000DB0026
:103EA000210058082000DA00080023006A082000DA
:103EB000E100230069082000E000230068082000DA
:103EC000DF00230067082000DE0008002000DD007E
:103ED0008030DC00080033082100A30020003208F5
:103EE0002100A200200031082100A100200030089C
:103EF0002100A000080027082000A40021002608B7
:103F00002000A300080027082000B1002100260897
:103F10002000B0000800403FB800413FB900423FD8
:103F2000BA00433FBB0008006608860067088700A8
:103F30005831403F08005B082100A70020005A08C4
:103F40002100A60008003708CA003608C900350855
:103F5000C8003408C700210008003308CE0032082A
:103F6000CD003108CC003008CB0008004A08DD0045
:103F70004908DC004808DB004708DA0008005A0856
:103F8000DE005B08DF005C08E0005D08E10008007F
:103F90004030E100E001DF01DE010800403FDA00CF
:103FA000413FDB00423FDC00433FDD0008002000D2
:103FB00066088600670887000800E1008030E0009E
:103FC000DF01DE010800E100A030E000DF01DE01DA
:103FD00008002000B4006608860067088700080013
:103FE000E100E001DF01DE010800CA00A030C900E5
:103FF000C801C70108006608860067088700080036
:1043AE000030EB24A1312000DA000130EB24A131E2
:1043BE009727A1315127A13130082100E1002000BB
:1043CE002F082100E00020002E082100DF00200031
:1043DE002D082100DE000230EB24A1312000DA008E
:1043EE000330EB24A1319727A1315127A131300899
:1043FE002100E50020002F082100E40020002E08F7
:10440E002100E30020002D082100E2000430EB24FF
:10441E00A1312000DB000225A13130082200D80096
:10442E0020002F082200D70020002E082200D600E0
:10443E0020002D082200D5000530EB24A1312000EC
:10444E00DB000225A13130082200DC0020002F08FD
:10445E002200DB0020002E082200DA0020002D08AA
:10446E002200D9000630EB24A1312000DB0002250A
:10447E00A13130082200E00020002F082200DF00CA
:10448E0020002E082200DE0020002D082200DD0074
:10449E000730EB24A1312000DB000225A1313008CA
:1044AE002200E40020002F082200E30020002E0846
:1044BE002200E20020002D082200E1000830EB244B
:1044CE00A1312000DB000225A13130082200E800D6
:1044DE0020002F082200E70020002E082200E60010
:1044EE0020002D082200E5000930EB24A131200028
:1044FE00DB005B082100EB000A30EB24A131200029
:10450E00DB005B082100EA000B30EB24A131200018
:10451E00DB002100BE000C30BF01EB24A1312000D6
:10452E00DB002100E6000D30E701EB24A131200075
:10453E00DB002100E8000E30E901EB24A131200060
:10454E00DB002200E9000F30EA01EB24A13120004C
:10455E00DB002200EB001030EC01EB24A131200037
:10456E00DB002200ED001130EE01EB24A131200022
:10457E00DB00EC00083E073909070907123EEB2461
:10458E00A1312000DA00B427A131133EEB24A13172
:10459E009727A1315127A13130082400A300200014
:1045AE002F082400A20020002E082400A1002000C5
:1045BE002D082400A0002000B427A131143EEB24C6
:1045CE00A1312000DA00B427A131153EEB24A13130
:1045DE009727A131512730082400A70020002F086B
:1045EE002400A60020002E082400A50020002D087F
:1045FE002400A40020008731A127A131123EEB2414
:10460E002000DA008731A127A131133EEB24A1311E
:10461E009727A13151278731A127A131143EEB24D1
:10462E002000DA008731A127A131153EEB24A131FC
:10463E009727A13151278731A727A131123EEB24AD
:10464E002000DA008731A727A131133EEB24A131D8
:10465E009727A13151278731A727A131143EEB248B
:10466E002000DA008731A727A131153EEB24A131B6
:10467E009727A131512787319B27A131123EEB2479
:10468E002000DA0087319B27A131133EEB24A131A4
:10469E009727A131512787319B27A131143EEB2457
:1046AE002000DA0087319B27A131153EEB24A13182
:1046BE009727A131512787319527A131123EEB243F
:1046CE002000DA0087319527A131133EEB24A1316A
:1046DE009727A131512787319527A131143EEB241D
:1046EE002000DA0087319527A131153EEB24A13148
:1046FE009727A131512787318327A131123EEB2411
:10470E002000DA0087318327A131133EEB24A1313B
:10471E009727A131512787318327A131143EEB24EE
:10472E002000DA0087318327A131153EEB24A13119
:10473E009727A131512787318927A131123EEB24CA
:10474E002000DA0087318927A131133EEB24A131F5
:10475E009727A131512787318927A131143EEB24A8
:10476E002000DA0087318927A131153EEB24A131D3
:10477E009727A131512787318F27A131123EEB2484
:10478E002000DA0087318F27A131133EEB24A131AF
:10479E009727A131512787318F27A131143EEB2462
:1047AE002000DA0087318F27A131153EEB24A1318D
:1047BE009727A1315127A1313630EB24A1312000AA
:1047CE00DB005B082100B8003730EB24A131383014
:1047DE00EB24A1312000DB002100B4003930B401FC
:1047EE00B40ABD01EB24A1312000DB002100B7008B
:1047FE003F083E04031D0A2C23000130A301A20131
:10480E00A100F430292C3E082000A30021003F080F
:10481E002000A4000430A501A601AA01A901A80048
:10482E003830A700C427A13126082300A30020009A
:10483E0025082300A200200024082300A100200048
:10484E0023082300A00021006B03031DE92C433035
:10485E002400EB00BE30EA001330E900CB30E80054
:10486E004330E700B630E6000530E500F030E400F6
:10487E004330E300AD30E200F830E1001530E000E7
:10488E004330DF00A530DE00EA30DD003A30DC00D8
:10489E004330DB009030DA00F930D9006730D800B1
:1048AE0043302200D400C630D300EF30D200D630D1
:1048BE00D10043302300EA00C330E900B730E800EE
:1048CE001830E70043302500D3009030D200F93085
:1048DE00D1006730D0004330D7009930D600073072
:1048EE00D5004230D40043302300E600C430E5004A
:1048FE008530E4004730E30042302500CF0096308B
:10490E00CE004230CD01CC012300EE00F530ED009B
:10491E00E630EC00D230EB0044302500EB007A306C
:10492E00EA004430E901E801DB003430DA004430BB
:10493E00D901D801DF002030DE004230DD01DC017C
:10494E002000CA007430C9004130C801C701B70049
:10495E002030B600B501B401210061082000BB0073
:10496E00210060082000BA0021005F082000B90075
:10497E0021005E082000B8008E310726A131B43127
:10498E006024A131E5264A082500E70020004908E9
:10499E002500E600200048082500E5002000470815
:1049AE002500E4004330E3002330E200EF30E10065
:1049BE003730E0004230CB008030CA000030C901F1
:1049CE00C8010800000008002000A300EF2C200002
:1049DE00640023009518EE2C20002308230091007C
:1049EE0092013F309505151403101518031400306D
:1049FE00093D130808002000B200A3009630A40160
:104A0E00A501A601A700A8018E3175262608B000C3
:104A1E002508AF002408AE002308AD000800330BB4
:104A2E001E2D2400D401D5012200B3011D2D21001D
:104A3E00BD08031D4F2D2200430B3B2D2A0B3B2D92
:104A4E006F0B3B2D03302100390203183B2DBA01A9
:104A5E00BA0A3A08003A0319572D013A0319DD2D07
:104A6E00033A0319292EDA2E22004308023A031DB7
:104A7E004C2D2A0B4C2D6F0B4C2D0330210039027F
:104A8E0003184C2D0230BA00302D2100BA01302D02
:104A9E003D0B522D2E2D3D08023A0319492D4C2D5A
:104AAE002300C108031DA62D6F272000A301A4011A
:104ABE008B31BA23A1318B31B523A1312000A30153
:104ACE00A4018B316723A13122008E1121004130C8
:104ADE00A601A701A401A501A300A030A2002030C9
:104AEE00A101A0018F31D027A131DB268F31CB2739
:104AFE00A131DB26A131C730AB000130AC00DB2683
:104B0E008F311727A1318C31C624A1318F316B27FC
:104B1E00A1318F315727A131B3317723A131E5264A
:104B2E008631CD26A1318E310726A131B3319C239A
:104B3E00A1319F27A131C10A2100B501B301230084
:104B4E00C308031D08006F272000A301A4018B31A9
:104B5E00BA23A1318B31B523A1318F319B27A131DE
:104B6E008B316723A13122008E1592271930200038
:104B7E00A300A4018B316723A131B8302000A3001C
:104B8E000B30A4008B319223A131A301A4018B31F0
:104B9E006723A1318B31B523A1318F319B27A131F1
:104BAE008B3167232300C301C30A0800330B0800AF
:104BBE008B31B523A1312000A301A4018B316723D2
:104BCE00A13122008E116F27A131BA273230A101F7
:104BDE00A001A600A7019F317B27A1318B31BA23FB
:104BEE00A13120308F31D027A131DB268F31CB2759
:104BFE00A131DB268F311727A1318C31C624A1318B
:104C0E008F316B27A1319F27A13121000230B501D1
:104C1E00B30020000730EC0AEC056C08E4001130FC
:104C2E007527220023082400A70022002208240052
:104C3E00A600220021082400A5002200200824003E
:104C4E00A4000800B508031D08006F272000A3016B
:104C5E00A4018B31BA23A13122008E118B31B523E1
:104C6E00A131BA271430A101A001B331BF23A13164
:104C7E008B316723A131C7302000AB000130AC006F
:104C8E00DB268F315727A131B3317723A131E526AA
:104C9E008631CD26A1318E310726A131B3319C2329
:104CAE00A1319F272100B501B50AB30122002308C7
:104CBE002400A300220022082400A20022002108C2
:104CCE002400A100220020082400A00023082000B8
:104CDE00CE00240022082000CD0024002108200050
:104CEE00CC00240020088631BB26A131E526863172
:104CFE00C426A1319E319826A1315A08E400B4276A
:104D0E00A131123E7527240023082000DD00240067
:104D1E0022082000DC00240021082000DB002400F3
:104D2E0020082000DA009E319826A1315A08E400AE
:104D3E00B427A131133E7527240027082000CE008A
:104D4E00240026082000CD00240025082000CC00D9
:104D5E00240024088631BB26A131E5268631C426DF
:104D6E00A1319E319826A1315A08E400B427A13111
:104D7E00143E7527240027082000DD002400260895
:104D8E002000DC00240025082000DB00240024087D
:104D9E002000DA009E319826A1315A08E400B4278B
:104DAE00A131153E752F08002C08A4002B08A30076
:104DBE001C30A501A601A700A801E92F4B08CF00C2
:104DCE004C08D0004D08D1004E08D2000310510DF2
:104DDE00520DD800D808031DF62EC701C02F470864
:104DEE00CF004808D0004908D1004A08D20003106D
:104DFE00510D520DD900D908031D072FC701C02F21
:104E0E0089305907CF00D8024E08D9004A08D90672
:104E1E008030D9052030CD17CE01C917CA01D70071
:104E2E00D335D40DD50DD60D4A084E02031D292FAC
:104E3E0049084D02031D292F48084C02031D292F36
:104E4E0047084B02031C342F4708CB024808CC3BC3
:104E5E004908CD3B4A08CE3B5314CB35CC0DCD0D76
:104E6E00CE0DD70B172F5608A6005508A5005408CF
:104E7E00A4005308A3005808A7005908A8008E31B3
:104E8E0075262608CA002508C9002408C80023086C
:104E9E00C7000800B101AE1F5A2FAD09AE09AD0A09
:104EAE000319AE0AB10A2D08A3002E08A4009630ED
:104EBE00A501A601A7003108A8008E317526260887
:104ECE00B0002508AF002408AE002308AD0008008E
:104EDE0021000E150D1528001E110800E5002300F7
:104EEE009518762F2000650823009100920120006E
:104EFE006408230093003F30950503108B1B0314A9
:104F0E008B13151555309600AA3096009514151171
:104F1E0003188B17080021008D12280017150800A2
:104F2E002000DB005A08AE00AD015B08AD0408009E
:104F3E002200BF012300B401B501B601B701220062
:104F4E00A601A701FC01FD012300BB012100B20156
:104F5E00EC01EC0A2300C10108006C08083E073979
:104F6E0009070907080042302100A3004830A200BB
:104F7E000800C801C901CA010800AB01AC01AD01AE
:104F8E00AE01231CD22F2708AB072808AC3D2908F9
:104F9E00AD3D2A08AE3DA735A80DA90DAA0DA63622
:104FAE00A50CA40CA30C2608250424042304031D1D
:104FBE00C82F2E08A6002D08A5002C08A4002B082B
:104FCE00A30008002408AA002308A9000130A702A4
:104FDE000030A83B270A0319280A031908002908DC
:104FEE0086002A08870025088100A90A0319AA0A43
:024FFE00ED2F95
:105228008631822E28002108A13A031D692C2130DD
:105238008731F527A93189312C21A9312408E700C4
:105248008731C127A931031D692C42308731B42722
:10525800A9318631F926A9319B314623A9318631F6
:10526800D626A931A631E526A9318631CD26A93120
:105278008E310726A93137082400BB0020003608E4
:105288002400BA00200035082400B90020003408A2
:105298002400B80041302000B700F830B600513083
:1052A800B500EC30B4004130CA002030C900C80154
:1052B800C7016B08B1006A08B0009B314623A931C9
:1052C8008631D626A931A631E526A9318631CD26E3
:1052D800A9318E310726A93137082200A300200002
:1052E80036082200A200200035082200A100200074
:1052F80034082200A00042308731B427A9312100A8
:10530800B431BB24A9319B314623A9318631D62635
:10531800A931A631E526A9318631CD26A9318E31AC
:105328000726A93137082400B300200036082400D6
:10533800B200200035082400B10020003408240001
:10534800B0003E302000CA001930C9009930C800AA
:105358009A30C70022008731CD27A9319B314623D7
:10536800A9318631D626A931A631E526A9314A08C0
:105378002400AB00200049082400AA0020004808A7
:105388002400A900200047082400A8003F3020007E
:10539800CA00CC30C900C800CD30C70021002B0896
:1053A8002000B10021002A082000B0009B314623CC
:1053B800A9318631D626A931A631E526A9314A0870
:1053C8002400AF00200049082400AE00200048084F
:1053D8002400AD00200047082400AC0021006B0E1B
:1053E800F0393A042300C40055302700A000B1303A
:1053F800A10024003B082000CE0024003A08200029
:10540800CD00240039082000CC002400380886315B
:10541800BB26A931A631E526A9318631C426A93192
:105428009E319826A9315A082700A20024003B087B
:105438002000DD0024003A082000DC0024003908A0
:105448002000DB00240038082000DA009E3198266E
:10545800A9315A082700A300220023082000CE0003
:10546800220022082000CD00220021082000CC00C4
:10547800220020088631BB26A931A631E526A931AC
:105488008631C426A9319E319826A9315A082700A9
:10549800A400220023082000DD00220022082000AA
:1054A800DC00220021082000DB0022002008200068
:1054B800DA009E319826A9315A082700A500240051
:1054C80033082000CE00240032082000CD0024003C
:1054D80031082000CC00240030088631BB26A931D1
:1054E800A631E526A9318631C426A9319E319826F0
:1054F800A9315A082700A600240033082000DD003F
:10550800240032082000DC00240031082000DB00E1
:10551800240030082000DA009E319826A9315A0864
:105528002700A70024002B082000CE0024002A080A
:105538002000CD00240029082000CC0024002808E1
:105548008631BB26A931A631E526A9318631C42684
:10555800A9319E319826A9315A082700A8002400AD
:105568002B082000DD0024002A082000DC0024008D
:1055780029082000DB00240028082000DA009E31DA
:105588009826A9315A082700A90024002F082000CE
:10559800CE0024002E082000CD0024002D08200075
:1055A800CC0024002C088631BB26A931A631E5267B
:1055B800A9318631C426A9319E319826A9315A08C5
:1055C8002700AA0024002F082000DD0024002E0850
:1055D8002000DC0024002D082000DB0024002C081B
:1055E8002000DA009E319826A9315A082700AB001E
:1055F800230044082700AC0021002F082700AD0035
:1056080021002E082700AE0021002B082700AF003C
:1056180021002A082700B000220029082700B1002D
:10562800220028082700B2002000A731B427A9319A
:10563800123EA431EB24A9312700B3002000A73182
:10564800B427A931133EA431EB24A9312700B400B3
:105658002000A731B427A931143EA431EB24A93185
:105668002700B5002000A731B427A931153EA43181
:10567800EB24A9312700B60020008731A127A931E2
:10568800123EA431EB24A9312700B700200087314E
:10569800A127A931133EA431EB24A9312700B80072
:1056A80020008731A127A931143EA431EB24A93168
:1056B8002700B90020008731A127A931153EA43160
:1056C800EB24A9312700BA0020008731A727A93188
:1056D800123EA431EB24A9312700BB0020008731FA
:1056E800A727A931133EA431EB24A9312700BC0018
:1056F80020008731A727A931143EA431EB24A93112
:105708002700BD0020008731A727A931153EA43105
:10571800EB24A9312700BE00200087319B27A9313F
:10572800123EA431EB24A9312700BF0020008731A5
:105738009B27A931133EA431EB24A9312700C000CF
:10574800200087319B27A931143EA431EB24A931CD
:105758002700C100200087319B27A931153EA431BD
:10576800EB24A9312700C200200087319527A931F1
:10577800123EA431EB24A9312700C3002000873151
:105788009527A931133EA431EB24A9312700C40081
:10579800200087319527A931143EA431EB24A93183
:1057A8002700C500200087319527A931153EA4316F
:1057B800EB24A9312700C600200087318327A931AF
:1057C800123EA431EB24A9312700C70020008731FD
:1057D8008327A931133EA431EB24A9312700C8003F
:1057E800200087318327A931143EA431EB24A93145
:1057F8002700C900200087318327A931153EA4312D
:10580800EB24A9312700CA00200087318927A93154
:10581800123EA431EB24A9312700CB0020008731A8
:105828008927A931133EA431EB24A9312700CC00E4
:10583800200087318927A931143EA431EB24A931EE
:105848002700CD00200087318927A931153EA431D2
:10585800EB24A9312700CE00200087318F27A931FA
:10586800123EA431EB24A9312700CF002000873154
:105878008F27A931133EA431EB24A9312700D0008A
:10588800200087318F27A931143EA431EB24A93198
:105898002700D100200087318F27A931153EA43178
:1058A800EB24A9312700D2008731EF27A931323004
:1058B800A50089312C21A93187310227D300210085
:1058C80028082700D400AA30D5008631962E2B0B45
:1058D800E32CFC3021009E051D30B531A525AC31E7
:1058E80031082100AF00200030082100AE0003304D
:1058F8009E0401302F02EA3003192E020318912C5E
:1059080023007830BC0ABD01BE01BF013C02031C64
:10591800E12CBC012100B901E12C01302F02FF303C
:1059280003192E020230031CAE2C2F021230031969
:105938002E020318AD2C23003C30BD0ABC01BE0169
:10594800BF013D02031CE12CBD012100B901B90AC8
:10595800E12C02302F02133003192E020230031CEF
:10596800C82C2F02263003192E020318C72C230037
:105978001E30BE0ABC01BD01BF013E02031CE12C62
:105988000230BE01D92C02302F02263003192E0214
:10599800031CDC2C23000A30BF0ABC01BD01BE0178
:1059A8003F02031CE12C0330BF012100B900E12CA8
:1059B8002300BC01BD01BE01BF012200AB012D0BBC
:1059C800162D0130B531A525AC3131082200A900CA
:1059D800200030082200A8000030290205300319F1
:1059E8002802031C0A2D023029025A300319280202
:1059F80003180A2D23000A30C60AC2014602031CF6
:105A0800142DC6012200EF01EF0A142D23000A30DD
:105A1800C20AC6014202031C142DC2012200EF0172
:105A28002200AD012E0B692E0230B531A525AC310F
:105A380031082100B100200030082100B000220008
:105A4800C208031DAE2D2500B4314824AC319B316A
:105A58004623AC31B331AC23AC319E315826AC313E
:105A6800031C602D2400B40A0319B50A0319B60AE9
:105A78000319B70A2500A401A501A601A70124005E
:105A8800370823002302031D592D2400360823005C
:105A98002202031D592D2400350823002102031D6D
:105AA800592D24003408230020020318AE2D2400A9
:105AB800B5315D25AC31AE2D250063082000DD0031
:105AC800250062082000DC00250061082000DB00BA
:105AD800250060082000DA008631F926AC319B31B8
:105AE8004623AC31B331AC23AC319E315826AC31AE
:105AF8000318AB2D2500A40A0319A50A0319A60A41
:105B08000319A70A2400B401B501B601B70125009D
:105B1800270823002302031DA12D250026082300A2
:105B28002202031DA12D2500250823002102031DA3
:105B3800A12D25002408230020020318AE2D2500DE
:105B4800A401A501A601A7012200C301AE2D86313B
:105B5800DF26AC318631F926AC319B314623AC3196
:105B6800B3319323AC31250063082000E100250000
:105B780062082000E000250061082000DF00250001
:105B880060082000DE009E315826AC310330031C2B
:105B98001A2E21003102E830031930020318192E99
:105BA8002500A80A0319A90A0319AA0A0319AB0AA6
:105BB80005302000A300A401A501A60123002308A5
:105BC8002000AA00230022082000A90023002108A1
:105BD8002000A800230020082000A70089315721B1
:105BE800AC3125002B0820002602031D0B2E2500B2
:105BF8002A0820002502031D0B2E25002908200055
:105C08002402031D0B2E2500280820002302031858
:105C18002B2E2500B5317225AC31C30A8631DF261B
:105C2800AC312200C201C20A2B2E033021003102FE
:105C3800E83003193002031C262E2500B5317225E1
:105C4800AC312B2E2500A801A901AA01AB01220025
:105C5800420B672E2500B4314824AC319B314623D2
:105C6800AC31B331AC23AC319E315826AC31031C76
:105C7800622E2400B40A0319B50A0319B60A0319D7
:105C8800B70A370823002302031D5A2E24003608BA
:105C980023002202031D5A2E240035082300210266
:105CA800031D5A2E24003408230020020318672EEF
:105CB8002400B5315D25AC31C201672E2400B40142
:105CC800B501B601B7012200AE01310BA32EA40124
:105CD800A50121003A0BA12E0930B531A525AC311B
:105CE80031082200A500200030082200A4008731D6
:105CF800CD27AC319B314623AC31B3319323AC3142
:105D0800B431CB24AC319E315826AC31031CA12EC2
:105D1800033021003302031CA12E00302702333048
:105D280003192602031C9B2EFF30A607A73D9F31AF
:105D38007B27AC318B31BA23AC312200B1019131D0
:105D48002F0B12290C30B531A525AC313108EB00E9
:105D58003008EA004130B700F830B6005130B500DD
:105D6800EC30B4004130CA002030C900C801C70176
:105D78006B08B1006A08B0009B314623AC3186310C
:105D8800D626AC31A631E526AC318631CD26AC31EC
:105D98008E310726AC3137082200A30020003608D0
:105DA8002200A200200035082200A10020003408AB
:105DB8002200A000B4317D24AC319B314623AC31A4
:105DC800B3319323AC31B5315425AC318831BC2083
:105DD800AC31B5319B25AC31A7315127AC31B43149
:105DE8001724AC318C31C624AC31B5313925AC31EE
:105DF8009E315826AC310318132F2100B308031D18
:105E0800132F23006430BA0A3A02031C3F2FBA0149
:105E18002100B301B30A2200AA01AA0A3F2FB43114
:105E28007D24AC319B314623AC31B3319323AC3163
:105E3800B5315425AC318831BC20AC31B5319B2506
:105E4800AC31A7315127AC31B4311724AC318C3186
:105E5800C624AC31B5313925AC319E315826AC3128
:105E6800031C3F2F02302100330203183F2F230069
:105E7800BA012200AA01B4317D24AC319B314623FA
:105E8800AC31B3319323AC319F315527AC319E31BE
:105E98005826AC3103185C2F21003308023A031D41
:105EA8005C2F0330B30088318020AC319131102948
:105EB800B4317D24AC319B314623AC31B3319323CB
:105EC800AC319F315527AC319E315826AC31031C7B
:105ED800832F21003308023A031D832F2200230851
:105EE8002400A700220022082400A600220021087E
:105EF8002400A500220020082400A4005A2FB43151
:105F08007D24AC319B314623AC31B3319323AC3182
:105F18009F313027AC319E315826AC310318CC2F35
:105F2800033021003302031CCC2F22008731CD27F8
:105F3800AC319B314623AC31B3319323AC31B4310E
:105F4800CB24AC319E315826AC310318C82F03300E
:105F580021003302031CC82F2400D20A0319D30AD4
:105F680000305302063003195202031CC82FD20115
:105F7800D3019931D021AC31220025082300A50096
:105F8800220024082300A4002400CE01CF015A2FA8
:105F9800B4317D24AC319B314623AC31B3319323EA
:105FA800AC319F313027AC319E315826AC31031CBF
:105FB8005A2F033021003302031C5A2F2400CE0A23
:105FC8000319CF0A00304F02C93003194E02031CCF
:105FD8005A2F0330CE01CF0121003302031C5A2F60
:105FE8000530B300A7316F27AC312000A301A4010D
:085FF8008B31BA23AC31FF2FFD
:1066EE00B7002030B6004230B501B401CA00C83040
:1066FE00C900C801C701210065082000CE00210095
:10670E0064082000CD00210063082000CC00210089
:10671E0062082000CB0008003308DD003208DC00E0
:10672E003108DB003008DA00080037082300CA0001
:10673E00200036082300C900200035082300C800B9
:10674E00200034082300C70008003308E100320897
:10675E00E0003108DF003008DE0008002100DC0018
:10676E00DD015D087D02031D08005C087C02080047
:10677E00A400A50125082000A40021002408200063
:10678E00A30008003308CA003208C9003108C80047
:10679E003008C7004330B7002030B600B501B40151
:1067AE0025004B082000BB0025004A082000BA0037
:1067BE00250049082000B900250048082000B8002F
:1067CE0008002000DA006B08B1006A08B00008006B
:1067DE0023004A082000E100230049082000E000C1
:1067EE00230048082000DF00230047082000DE00B9
:1067FE00080025082000A400210024082000A30082
:10680E00080023004A082000BB002300490820008E
:10681E00BA00230048082000B900230047080800EA
:10682E003008CE002F08CD002E08CC002D08CB004E
:10683E00220054082000CA00220053082000C9007C
:10684E00220052082000C800220051082000C70074
:10685E0008005F082000DD0025005E082000DC0037
:10686E0025005D082000DB0025005C082000DA0012
:10687E0021002B082000B10021002A082000B000C2
:10688E00080067082000DD00250066082000DC00F7
:10689E00250065082000DB00250064082000DA00D2
:1068AE00210031082000B100210030082000B00086
:1068BE0008003708CE003608CD003508CC00340865
:1068CE00CB000800DA01DB01DC01DD010800250048
:1068DE0057082000DD00250056082000DC002500AA
:1068EE0055082000DB0025005408080020006B0826
:1068FE00B1006A08B00008006B082000DD0024001B
:10690E006A082000DC00240069082000DB00240057
:10691E006808080063082000DD00240062082000DB
:10692E00DC00240061082000DB0024006008080061
:10693E0067082000DD00240066082000DC0024002B
:10694E0065082000DB002400640808005F082000B2
:10695E00DD0024005E082000DC0024005D0820001D
:10696E00DB0024005C0808002D082000B100210087
:10697E002C082000B00008002000CA00C830C90052
:10698E00C801C7012200080025004F082000E100C1
:10699E0025004E082000E00025004D082000DF00F5
:1069AE0025004C082000DE00080023006E082000A1
:1069BE00E10023006D082000E00023006C08200099
:1069CE00DF0023006B082000DE00080025005308BE
:1069DE002000E100250052082000E00025005108AB
:1069EE002000DF00250050082000DE000800B40063
:1069FE0025006F082000BB0025006E082000BA009D
:106A0E0025006D082000B90025006C0808004A0812
:106A1E002300CA00200049082300C90020004808AE
:106A2E002300C800200047082300C7000800C40147
:106A3E00C501C601C701C801C901CA01CB010800C1
:106A4E00A500A60121002D082000A40021002C087D
:106A5E002000A3000800C801C901CA01CB01CC0166
:106A6E00CD0108004A08E1004908E0004808DF00AF
:106A7E004708DE0008002408AC002308AB00E8300D
:106A8E00A9000330AA0008003708E1003608E0002C
:106A9E003508DF003408DE0008000530A500A60129
:106AAE0021006B082000A300A40108000230B401ED
:106ABE00B501B601B7012200C30008002000B700DF
:106ACE00F530B600C230B5008F3421006608680775
:106ADE00220069070800A801A901AA01AB01220042
:106AEE00C3010800B20A0319B30A03303302E934B2
:106AFE002000B700B330B6003330B50008002000D8
:106B0E00B7004C30B600CC342000B700B601B5014A
:106B1E00B40108002000A301A30AA4010800C701C4
:106B2E00C801C901CA0108002408AE002308AD003F
:106B3E0008002A08B1002908B00008002100C00092
:106B4E00C70040082000B200B20DB20D21001D0892
:106B5E00200032068339320621009D001D1447089D
:106B6E000A3A0319BE2D4708093A031DDB2EC90147
:106B7E000D302000B200B20BC22D21009D149D18C5
:106B8E00C62D1C08C827B5313330C90A4902031C6B
:106B9E00BF2DC801C9012000B30121004808323CB5
:106BAE00F327B5310318E32D2100C427B531BA27D9
:106BBE00B5314227B531D22D21003230C80A4802F4
:106BCE00031CD12D1D101A302000A9007030AA010F
:106BDE00860023308700A030840023308500003FDC
:106BEE00B200013FB300A4308400003F3207B4006E
:106BFE00013F333DB5009C308400003F3407B600A2
:106C0E00013F353DB700A8308400003F3607B8007D
:106C1E00013F373DB90098308400003F3807BA0075
:106C2E00013F393DBB00AC308400003F3A07BC0049
:106C3E00013F3B3DBD0094308400003F3C07BE0049
:106C4E00013F3D3DBF00B0308400003F3E07C00015
:106C5E00013F3F3DC10090308400003F4007C2001D
:106C6E00013F413DC300B4308400003F4207C400E1
:106C7E00013F433DC500703084001C31003F440786
:106C8E00C600013F453DC700B83084002330850063
:106C9E00003F4607C800013F473DC90070308400E1
:106CAE001831003F4807CA00013F493DCB00BC30B8
:106CBE00840023308500003F4A07CC00013F4B3D46
:106CCE00CD00703084001431003F4C07CE00013FE0
:106CDE004D3DCF00C030840023308500003F4E076D
:106CEE00D000013F4F3DD100703084001031003F85
:106CFE005007D200013F513DD300C43084002330F1
:106D0E008500003F5207D400013F533DD50070303F
:106D1E0084000C31003F5407D600013F553DD7008B
:106D2E00C830840023308500003F5607D800013F4D
:106D3E00573DD900703084000831003F5807DA0003
:106D4E00013F593DDB00CC30840023308500003FED
:106D5E005A07DC00013F5B3DDD00703084000431DA
:106D6E00003F5C07DE00013F5D3DDF00D030840058
:106D7E0023308500003F5E07E000013F5F3DE100EC
:106D8E00D4308400003F6007E200013F613DE30024
:106D9E00403F6207AB00413F633DAC001D272A0810
:106DAE00B1002908B0000800C9011A302000B20055
:106DBE00B20BDF2E000021009D149D18E42E1C083E
:106DCE00C827B5310B30C90A4902031CDC2EC80195
:106DDE00C9012000B301210048080B3CF327B5314F
:106DEE000318012F2100C427B531BA27B531422728
:106DFE00B531F02E21000A30C80A4802031CEF2ECE
:106E0E001D10703086002330870070304C318400A6
:106E1E00233085000831403F00072000B0000131CB
:106E2E00413F003DB100B136B00C0800AE01AF01DC
:106E3E002A08290403193D2FAD01AD0AAA1B2A2FDA
:106E4E00A935AA0D242FAE35AF0D2A082C02031D2D
